:020000040800F2
:10000000D04C002099010008311E0008331E000862
:10001000371E00083B1E00083F1E000800000000BD
:1000200000000000000000000000000001010008C6
:10003000431E0008000000004501000825200008BC
:10004000B3010008B3010008B3010008B3010008C0
:10005000B3010008B3010008B3010008B3010008B0
:10006000B3010008B3010008B3010008B3010008A0
:10007000B3010008B3010008B3010008B301000890
:10008000B3010008B3010008B3010008B301000880
:10009000B3010008B3010008B3010008B301000870
:1000A000B3010008B3010008B3010008B301000860
:1000B000B3010008B3010008B3010008B301000850
:1000C000B3010008B3010008B3010008B301000840
:1000D000B3010008DD210008B3010008B3010008E6
:1000E000B3010008B3010008B3010008DFF80CD029
:1000F00005F084F900480047F91D0008D04C0020A5
:10010000224B19680868B0E8F00F80F30988BFF344
:100110006F8F4FF0000080F311884EF00D0E704786
:100120000000000006480068006880F3088862B696
:1001300061B6BFF34F8FBFF36F8F00DF00BF00BF0B
:1001400008ED00E0EFF30980BFF36F8F0F4B1A68E3
:1001500020E9F00F106008B54FF0500080F31188CF
:10016000BFF34F8FBFF36F8F03F0BBFB4FF0000067
:1001700080F31188BDE8084019680868B0E8F00FFE
:1001800080F30988BFF36F8F704700BF44000020E1
:10019000EFF3058070470000064880470648004797
:1001A000FEE7FEE7FEE7FEE7FEE7FEE7FEE7FEE727
:1001B000FEE7FEE7231F0008ED0000083149014378
:1001C000314A1160704770B5002100230F22C478B6
:1001D00004B32D4C246804F4E064C4F5E064210AFF
:1001E000C1F10403CA40447804FA03F1847814404E
:1001F00021430901254C0678A155047804F01F0518
:100200000124AC4005786D11AD0005F1E025C5F87D
:10021000004109E0047804F01F050124AC401C4DA6
:100220000678761145F8264070BD1A4A0A40024306
:10023000154B1B1F1A60704739B1134A121D126803
:100240000243114B1B1D1A6006E00F4A121D126873
:1002500082430D4B1B1D1A607047042808D14FF0D4
:10026000E021096941F004014FF0E022116107E04B
:100270004FF0E021096921F004014FF0E022116103
:10028000704700000000FA050CED00E000E400E01B
:1002900080E100E080FFFF1F10B50446CC48844297
:1002A00008D10121042000F02DFB0021042000F0E2
:1002B00029FB46E0C748844208D10121082000F00C
:1002C00021FB0021082000F01DFB3AE0C2488442D7
:1002D00008D10121102000F015FB0021102000F0B2
:1002E00011FB2EE0BD48844208D10121202000F0FE
:1002F00009FB0021202000F005FB22E0B8488442E1
:1003000008D10121402000F0FDFA0021402000F03A
:10031000F9FA16E0B348844208D10121802000F0A8
:10032000F1FA0021802000F0EDFA0AE0AE488442A4
:1003300007D10121801500F0E5FA0021A01500F099
:10034000E1FA10BD10B50121084600F0DBFA0021EA
:10035000012000F0D7FA10BD2DE9F041024600253A
:100360000026002000230024002791F803C00CF091
:100370000F0591F803C00CF0100CBCF1000F03D076
:1003800091F802C04CEA050591F800C0BCF1000FDD
:1003900031D0146800202BE04FF0010C0CFA00F370
:1003A000B1F800C00CEA03069E4220D183004FF052
:1003B0000F0C0CFA03F7BC4305FA03FC4CEA0404E7
:1003C00091F803C0BCF1280F06D14FF0010C0CFAD4
:1003D00000FCC2F814C00AE091F803C0BCF1480F59
:1003E00005D14FF0010C0CFA00FCC2F810C0401C03
:1003F0000828D1D31460B1F800C0BCF1FF0F34DD80
:10040000546800202EE000F1080C4FF0010808FAB3
:100410000CF3B1F800C00CEA03069E4221D1830020
:100420004FF00F0C0CFA03F7BC4305FA03FC4CEA3F
:10043000040491F803C0BCF1280F05D100F1080CA9
:1004400008FA0CF8C2F8148091F803C0BCF1480F08
:1004500007D100F1080C4FF0010808FA0CF8C2F8B7
:100460001080401C0828CED35460BDE8F0814FF6C0
:10047000FF710180022181700421C1707047024622
:10048000002093680B400BB1012000E00020704772
:100490000146886880B2704702460020D3680B404E
:1004A0000BB1012000E0002070470146C86880B20F
:1004B000704701617047416170470AB1016100E016
:1004C00041617047C16070474FF480320A438261D6
:1004D0008161826182698269704702460020434BD4
:1004E00018684FF68073184040EA021008433F4BEB
:1004F000186070473E49C8617047F0B50A4600234E
:1005000000240021002500F00046B6F1004F02D182
:10051000364EF16901E0354E7168C0F3034583B290
:1005200000F44016B6F5401F08D121F070612F4E3F
:10053000766826F070662D4F7E6012E000F480161B
:10054000B6F5801F06D1032606FA05F4A14341F053
:10055000706106E0460D360103FA06F6B14341F03C
:10056000706122B1460D360103FA06F6314300F000
:100570000046B6F1004F02D11C4EF16101E01B4E66
:100580007160F0BD30B500228B071C0F0F2303FAFA
:1005900004F2164B08338C1053F824309343134C59
:1005A00008348D1044F8253023468C1053F824303D
:1005B0008C07240F00FA04F423430C4C08348D10EC
:1005C00044F8253030BD0A49DC310860704700002E
:1005D00000080140000C01400010014000140140DF
:1005E00000180140001C01400020014000000140B3
:1005F00000002042DF48006840F00100DD4908604B
:1006000008464068DC490840DA4948600846006806
:10061000DA490840D74908600846006820F480207D
:1006200008600846406820F4FE0048604FF41F0050
:1006300088607047CF49096821F48031CD4A116044
:100640001146096821F480211160B0F5803F03D084
:10065000B0F5802F0ED106E0C649096841F480311B
:10066000C44A116007E0C349096841F4A021C14AA6
:10067000116000E000BF00BF704710B501460022C6
:10068000002300204A11012A02D1BA4C236806E057
:10069000022A02D1B74C236A01E0B64C636A01F02A
:1006A0001F02012494401C400CB1012000E00020F6
:1006B00010BD38B5002000900024002500BF312077
:1006C000FFF7DBFF05460098401C00900098B0F54E
:1006D000A06F01D0002DF2D03120FFF7CEFF08B17E
:1006E000012400E00024204638BD01460020A14A34
:1006F000106820F0F80040EAC10010607047A0497F
:1007000008607047024600209A4B586820F47C101D
:1007100042EA01031843974B5860704798490866AE
:10072000704701460020934A506820F003000843B8
:10073000506070478F48406800F00C0070470146D9
:1007400000208C4A506820F0F00008435060704749
:1007500001460020874A506820F4E060084350605A
:10076000704701460020834A506820F4605040EAF8
:10077000C1005060704729B17E4A527A02437D4BD6
:100780005A7204E07B4A527A82437A4B5A7270471B
:100790007B49D8310860704701460020754A50688F
:1007A00020F440400843506070470021714A2032D5
:1007B0001170704A82F82010012802D004280AD152
:1007C00004E001216B4A2032117005E00521694ADD
:1007D0002032117000E000BF00BF70476949086017
:1007E00070476449096A0143624A1162704765496A
:1007F00044390860704730B50021002200240023EE
:100800005C4D6D6805F00C0121B1042905D0082963
:1008100023D105E05C4D056022E05B4D05601FE0E3
:10082000544D6D6805F47012524D6D6805F48034B6
:10083000022505EB92421CB9544D554305600BE06F
:100840004C4D6D6805F400351DB1504D55430560A4
:1008500002E04D4D5543056002E04B4D056000BF81
:1008600000BF444D6D6805F0F0010909484D6B5C0F
:100870000568DD4045603F4D6D6805F4E061090A9B
:10088000434D6B5C4568DD4085603A4D6D6805F40D
:100890006051C90A3E4D6B5C4568DD40C560354D11
:1008A0006D6805F44041890B3A4D6B5CC568B5FB3A
:1008B000F3F5056130BD29B12E4A526902432D4B33
:1008C0005A6104E02B4A526982432A4B5A617047AD
:1008D00029B1284A92690243264B9A6104E0254ACD
:1008E00092698243234B9A61704729B1214AD269A8
:1008F0000243204BDA6104E01E4AD26982431D4B59
:10090000DA61704729B11B4AD2680243194BDA6099
:1009100004E0184AD2688243164BDA60704729B166
:10092000144A12690243134B1A6104E0114A126916
:100930008243104B1A617047124940390860704772
:100940000F49C86470470B49C87170470948406A2D
:1009500040F0807007494862704701460020054A10
:1009600092680A400AB1012000E000207047014966
:1009700088727047001002400000FFF8FFFFF6FE8B
:10098000000042428004424200127A0000093D0009
:10099000000000201000002010B50446FE488442EC
:1009A00008D10121C014FFF7ADFF0021E014FFF7CB
:1009B000A9FFC4E0B4F1804F08D101210846FFF738
:1009C000AEFF00210120FFF7AAFFB8E0F348844200
:1009D00008D101210220FFF7A2FF00210220FFF72A
:1009E0009EFFACE0EE48844208D101210420FFF7CD
:1009F00096FF00210420FFF792FFA0E0E94884421F
:100A000008D101210820FFF78AFF00210820FFF705
:100A100086FF94E0E448844208D101211020FFF7CA
:100A20007EFF00211020FFF77AFF88E0DF48844234
:100A300008D101212020FFF772FF00212020FFF7BD
:100A40006EFF7CE0DA48844208D101214014FFF7B0
:100A500059FF00216014FFF755FF70E0D54884422C
:100A600009D10121C804FFF74DFF00214FF40020F8
:100A7000FFF748FF63E0D048844209D1012108050F
:100A8000FFF740FF00214FF48010FFF73BFF56E0D7
:100A9000CA48844209D101214805FFF733FF0021EC
:100AA0004FF40010FFF72EFF49E0C548844208D1FB
:100AB00001214020FFF733FF00214020FFF72FFFE7
:100AC0003DE0C048844208D101218020FFF727FF84
:100AD00000218020FFF723FF31E0BB48844208D18A
:100AE00001218015FFF71BFF0021A015FFF717FF5D
:100AF00025E0B648844209D101210804FFF702FF2E
:100B000000214FF48030FFF7FDFE18E0B04884422A
:100B100009D101214804FFF7F5FE00214FF4003010
:100B2000FFF7F0FE0BE0AB48844208D101218804B6
:100B3000FFF7E8FE00214FF48020FFF7E3FE10BD31
:100B400000220288944B98420ED0994B98420BD0C9
:100B5000B0F1804F08D0914B984205D0904B98420D
:100B600002D0904B984204D14FF68F731A404B88B5
:100B70001A438D4B984207D08C4B984204D04FF6C5
:100B8000FF431A40CB881A4302808B8883850B88E9
:100B90000385814B98420BD0854B984208D08B4BF4
:100BA000984205D08A4B984202D08A4B984201D194
:100BB0000B7A038601238382704770B500240022DC
:100BC0000023058C4FF6FE7635400584028C838821
:100BD000048B4FF68F752C40B51E2C400D882C438E
:100BE000751E2A400D892A434D882A436A4DA84222
:100BF0000BD06F4DA84208D0744DA84205D0744D5B
:100C0000A84202D0734DA84213D14FF6F7752A407F
:100C10004D892A434FF6FB752A408D882A434FF6AB
:100C2000FF652B404FF6FF552B408D892B43CD8917
:100C30002B4383800483CD888586028470BD70B584
:100C4000002400220023058C4FF6EF763540058402
:100C5000028C8388048B48F6FF752C404FF6FF45C5
:100C60002C400D884FF6FF7606EA05252C434FF6FB
:100C7000DF752A400D8906EA05152A434D8806EAE4
:100C800005152A43444DA84202D0494DA8421DD122
:100C90004FF67F752A404D894FF6FF7606EA051517
:100CA0002A434FF6BF752A408D8806EA05152A4368
:100CB0004FF6FF352B404FF2FF752B408D8906EA2A
:100CC00085052B43CD8906EA85052B438380048364
:100CD000CD880587028470BD70B5002400220023F2
:100CE000058C4FF6FF6635400584028C8388848B23
:100CF0004FF68F752C404FF6FC752C400D882C4319
:100D00004FF6FF552A400D894FF6FF7606EA052576
:100D10002A434D8806EA05252A431F4DA84202D0E2
:100D2000234DA8421DD14FF2FF752A404D894FF641
:100D3000FF7606EA05252A434FF6FF352A408D88BF
:100D400006EA05252A434EF6FF752B404DF6FF7542
:100D50002B408D8906EA05152B43CD8906EA05153A
:100D60002B4383808483CD888587028470BD70B5D2
:100D7000002200230024058C4EF6FF7635400584C2
:100D8000038C8488828B48F6FF752A404FF6FF4516
:100D90002A400D8820E00000002C014000040040A3
:100DA00000080040000C004000100040001400400B
:100DB00000340140004C014000500140005401400B
:100DC00000180040001C004000200040004001408E
:100DD00000440140004801404FF6FF7606EA052531
:100DE0002A434DF6FF752B400D8906EA05352B4346
:100DF0004D8806EA05352B43FA4DA84202D0FA4D3C
:100E0000A84208D14BF6FF752C408D894FF6FF762E
:100E100006EA85152C4384808283CD88A0F8405053
:100E2000038470BD828B4FF2FF331A408283828B22
:100E30004FF6FF7303EA01231A4382837047F0B52C
:100E40000C461546002200210026078C4EF6FF7C3A
:100E500007EA0C070784828B018C4FF6FF7707EABD
:100E6000043640F6FF473A404FF6FF7707EA05277A
:100E70003A434FF6FF7707EA03373A43D94FB84270
:100E80000ED0D94FB8420BD0B0F1804F08D0D74F19
:100E9000B84205D0D64FB84202D0D64FB84206D19C
:100EA0004DF6FF77394046F48057394305E047F661
:100EB000FF57394044F48057394382830184F0BDA1
:100EC000828B4FF6F3731A408283828B0A438283AC
:100ED0007047F0B50C461546002200210026078C0D
:100EE0004FF6FF6C07EA0C070784828B018C4FF6E4
:100EF000FF7707EA04264FF60C773A404FF6FF7764
:100F000007EA03172F433A43B64FB8420ED0B64F05
:100F1000B8420BD0B0F1804F08D0B44FB84205D0E2
:100F2000B34FB84202D0B34FB84206D14FF6FF5785
:100F3000394046F48077394305E04FF2FF57394096
:100F400044F48077394382830184F0BD028B4FF2F1
:100F5000FF331A400283028B4FF6FF7303EA01232B
:100F60001A4302837047F0B50C4615460022002153
:100F70000026078C4FF6EF7C07EA0C070784028BEC
:100F8000018C4FF6FF7707EA041640F6FF473A4018
:100F90004FF6FF7707EA03373A434FF6FF7707EA42
:100FA00005273A438F4FB8420ED08F4FB8420BD02F
:100FB000B0F1804F08D08D4FB84205D08C4FB84269
:100FC00002D08C4FB84206D14FF6DF77394046F059
:100FD0001007394305E04FF65F77394044F01007BA
:100FE000394302830184F0BD028B4FF6F3731A403C
:100FF0000283028B0A4302837047F0B50C46154604
:1010000000220021068C4FF6FE773E400684028BBC
:10101000018C4FF60C7632407E1C06EA03162E43F6
:101020003243704EB0420ED06F4EB0420BD0B0F192
:10103000804F08D06D4EB04205D06D4EB04202D008
:101040006C4EB04206D14FF6FD76314044F00106B9
:10105000314305E04FF6F576314044F00106314367
:1010600002830184F0BD70B505460C465D4885429B
:101070000ED05D4885420BD0B5F1804F08D05B485B
:10108000854205D05A48854202D05A48854200D14F
:1010900000E000BF208850B92389A28861882846D3
:1010A000FFF7ABFFE1882846FFF79EFF25E0208889
:1010B00004280AD12389A28861882846FFF753FFB4
:1010C000E1882846FFF742FF17E0208808280AD168
:1010D0002389A28861882846FFF7FBFEE18828461D
:1010E000FFF7EEFE09E02389A28861882846FFF712
:1010F000A6FEE1882846FFF795FE70BD2DE9F04178
:1011000005460C4600260127608808B9022600E043
:101110000026A088012801D1022700E001272088AD
:10112000A0B92389A28861882846FFF766FFE18875
:101130002846FFF759FF23893A4631462846FFF7EC
:1011400012FFE1882846FFF701FF13E02389A288F8
:1011500061882846FFF707FFE1882846FFF7F6FE7B
:1011600023893A4631462846FFF747FFE18828465B
:10117000FFF73AFFBDE8F0810A884B881A438B8855
:101180001A43CB881A430B891A434B891A438B891C
:101190001A43A0F8442070474FF6FF718180002168
:1011A0000180C1804180017270470021018041802F
:1011B0008180C180018141818181C181704700218D
:1011C00001804180012181800021C180018170471F
:1011D0000021018041808180C18001814181818124
:1011E00070470000002C0140003401400004004022
:1011F00000080040000C004021B1028842F00102CA
:10120000028004E002884FF6FE731A4002807047A5
:1012100031B1B0F8442042F40042A0F8442005E087
:10122000B0F84420C2F30E02A0F8442070471AB16F
:1012300083890B43838102E083898B4383817047D9
:101240008182704741EA0203A0F8483070471AB122
:1012500083890B43838102E083898B4383817047B9
:1012600001894FF6F8721140018170470A4600214A
:1012700001894FF68F73194011430181704730B5D2
:1012800004460D4629462046FFF7F0FF208940F02E
:101290000700208130BD2DE9F04104460D46164679
:1012A0001F46602D06D13B46012231462046FFF7FE
:1012B0005AFE05E03B46012231462046FFF79DFEDF
:1012C00029462046FFF7D2FF208940F00700208101
:1012D000BDE8F08130B50C4600210189C9B24FF656
:1012E000FF7505EA0325154325432943018130BDD8
:1012F0002DE9F04105460E46174698460024434620
:101300003A4631462846FFF7E5FF2C894FF6F8703C
:10131000044044F007044FF68F70044044F070041A
:101320002C81BDE8F081F0B504460D4616461F46F7
:101330003B46324629462046FFF7CCFF208940F441
:1013400080402081F0BD0185828270470A460021DD
:1013500001884FF68F731940114301807047F0B533
:101360000C4615461E460021002200230189028BEF
:10137000038C4FF6F877394021434FF6FC473A404B
:1013800040F201173A434FF6DD773B404FF6FF77C7
:1013900007EA06172F433B43018102830384F0BD14
:1013A0000A460021018B4FF68F73194011430183C8
:1013B00070470A460021018B48F6FF7319404FF62B
:1013C000FF7303EA02231943018370470A46002191
:1013D000818B4FF68F7319401143818370470A4602
:1013E0000021818B48F6FF7319404FF6FF7303EA23
:1013F000022319438183704721B1028842F08002A1
:10140000028004E002884FF67F731A400280704722
:1014100021B1828842F00402828004E082884FF683
:10142000FB731A408280704721B1828842F0080223
:10143000828004E082884FF6F7731A4082807047FA
:1014400021B1828842F00102828004E082884FF656
:10145000FE731A40828070470A460021018B4FF6C6
:10146000F77319401143018370470A460021018B2D
:101470004FF2FF7319404FF6FF7303EA022319433B
:10148000018370470A460021818B4FF6F77319409C
:101490001143818370470A460021818B4FF2FF730D
:1014A00019404FF6FF7303EA022319438183704703
:1014B0000A460021018B4FF6FB731940114301834B
:1014C00070470A460021018B4FF6FF3319404FF653
:1014D000FF7303EA02231943018370470A46002180
:1014E000818B4FF6FB7319401143818370470A4685
:1014F0000021818B4FF6FF3319404FF6FF7303EA4B
:1015000002231943818370470A460021018B4FF65D
:101510007F7319401143018370470A460021018BF4
:10152000C1F30E014FF6FF7303EA0223194301834F
:1015300070470A460021818B4FF67F731940114393
:10154000818370470A460021818BC1F30E014FF65B
:10155000FF7303EA02231943818370470A4600217F
:10156000018C4FF6FD7319401143018470470A4600
:101570000021018C4FF6F773194011430184704725
:101580000A460021018C4FF6DF7319404FF6FF73B6
:1015900003EA02131943018470470A460021018CB3
:1015A0004FF67F7319404FF6FF7303EA0213194396
:1015B000018470470A460021018C4FF6FF53194001
:1015C0004FF6FF7303EA02231943018470470A466A
:1015D0000021018C4FF2FF7319404FF6FF7303EAAD
:1015E00002231943018470470A460021018C4DF6FD
:1015F000FF7319404FF6FF7303EA02331943018466
:10160000704730B5002301248C40A3B2048C9C4366
:101610000484048C02FA01F5ADB22C43048430BD7D
:1016200030B5002304248C40A3B2048C9C43048472
:10163000048C02FA01F5ADB22C43048430BD70B5C0
:101640000346002000241846183001258D40ACB216
:101650001D8CA5431D8409B1082909D100EB610047
:10166000056825F0700505600568154305600EE006
:101670000D1FC5F34E052844056825F4E0450560B7
:1016800005684FF6FF7606EA02263543056070BD11
:1016900021B1028842F00202028004E002884FF683
:1016A000FD731A400280704721B1028842F00402A3
:1016B000028004E002884FF6FB731A4002807047F4
:1016C00021B1828842F08002828004E082884FF655
:1016D0007F731A408280704702884FF6F7731A4072
:1016E000028002880A430280704782884FF68F7317
:1016F0001A40828082880A438280704702894FF6AE
:10170000F8731A40028102890A43028170470289F4
:101710004FF67F731A40028102890A4302817047A3
:101720008184704781857047818670470187704743
:1017300081877047A0F84010704702884FF6FF433A
:101740001A40028002880A43028070470146888E50
:1017500070470146088F70470146888F70470146E1
:10176000B1F8400070470146888C70470146088DEB
:10177000704702460020138A0B400BB1012000E0A5
:1017800000207047CA430282704730B502460020ED
:1017900000230024158A05EA0103958905EA01045E
:1017A00013B10CB1012000E0002030BDCA43028219
:1017B0007047000010B50446FB48844209D101215E
:1017C0008803FFF79FF800214FF48040FFF79AF855
:1017D00032E0F648844209D101214804FFF79FF81E
:1017E00000214FF40030FFF79AF825E0F0488442DA
:1017F00009D101218804FFF792F800214FF48020DD
:10180000FFF78DF818E0EB48844209D10121C804A4
:10181000FFF785F800214FF40020FFF780F80BE078
:10182000E548844208D101210805FFF778F8002136
:101830004FF48010FFF773F810BD2DE9F04786B024
:1018400005460E460024A24600BFA1460027B089E7
:1018500000B100BF2F462C8A4CF6FF700440F08880
:1018600004432C82AC894EF6F3100440B0883189D1
:101870000843718908430443AC81AC8A4FF6FF40AA
:101880000440B0890443AC8201A8FEF7B4FFC64807
:10189000874202D1DDF810A001E0DDF80CA0A88994
:1018A00000F4004040B10AEBCA0000EB0A103168B6
:1018B0004900B0FBF1F807E00AEBCA0000EB0A10A0
:1018C00031688900B0FBF1F86420B8FBF0F0040146
:1018D0002009642101FB1089A88900F4004040B16F
:1018E000322000EBC900B0FBF1F000F00700044328
:1018F00008E0322000EB09106421B0FBF1F000F0A9
:101900000F0004432C8106B0BDE8F0874FF4165158
:10191000016000218180C18001810C214181002171
:101920008181704710B502460020108A4FF2FF03F4
:1019300018400B884C8823438C882343CC8823434E
:101940001843108210BD0021018041808180C18038
:10195000704721B1828942F40052828104E0828979
:101960004DF6FF731A4082817047F0B5034600249C
:1019700000260025002040F66A17B94200D100BFBA
:101980001846C1F3421401F01F06012707FA06F5B5
:10199000012C01D10C3004E0022C01D1103000E008
:1019A00014301AB107682F43076002E00768AF439D
:1019B0000760F0BD1AB1838A0B43838202E0838AF9
:1019C0008B4383827047028A4FF6F0731A4002827B
:1019D000028A0A430282704782894FF2FF731A40DB
:1019E000828182890A438281704721B1828942F0D3
:1019F0000202828104E082894FF6FD731A408281DF
:101A00007047028A4FF6DF731A400282028A0A4345
:101A10000282704721B1028A42F48042028204E0CD
:101A2000028A4BF6FF731A4002827047C1F3080224
:101A30008280704701468888C0F30800704781891A
:101A400041F0010181817047028BD2B20283028B87
:101A500042EA012202837047028B02F47F42028332
:101A6000028B0A430283704721B1828A42F020022E
:101A7000828204E0828A4FF6DF731A4082827047C6
:101A800021B1828A42F01002828204E0828A4FF6FB
:101A9000EF731A408282704721B1828A42F00802B5
:101AA000828204E0828A4FF6F7731A40828270477E
:101AB00021B1828942F40042828103E08289C2F32B
:101AC0000E028281704721B1828A42F400628282D2
:101AD00004E0828A4FF2FF731A4082827047828A42
:101AE0004FF6FB731A408282828A0A4382827047D1
:101AF00021B1828A42F00202828204E0828A4FF699
:101B0000FD731A408282704702460020B1F5007FC3
:101B100000D100BF13880B400BB1012000E0002072
:101B2000704701F40072B2F5007F00D100BFCA43D4
:101B30000280704770B50246002400230025002073
:101B400040F66A16B14200D100BFC1F3421501F060
:101B50001F03012606FA03F3012D02D196893340B3
:101B600006E0022D02D1168A334001E0968A334006
:101B70000C12012606FA04F41688344013B10CB195
:101B8000012000E0002070BD10B50022002340F6C7
:101B90006A14A14200D100BF0A1201249440A3B2EA
:101BA000DC43048010BD00000038014000440040C8
:101BB00000480040004C00400050004008B50121A2
:101BC0000420FEF785FE1020ADF800008DF803001C
:101BD00003208DF8020069460748FEF7BDFB10217F
:101BE0000548FEF766FC08BD04480068C043044988
:101BF000C1F89001704700000008014090012142A7
:101C00000000214210B54FF44070FEF7D7FA00F003
:101C100011FAFFF7D3FF00F07BF800F09FF810BD3A
:101C20001EE000244FF4FA7421462B48FFF782FD92
:101C3000204601F02DFD40F2DC5421462648FFF7F6
:101C400079FD4FF4FA7001F023FD40F6C4142146EB
:101C50002148FFF76FFD4FF4FA7001F019FD00BF46
:101C6000DFE703E04FF4FA7001F012FDFAE705E058
:101C7000FFF7BAFF4FF4FA7001F00AFDF8E71CB560
:101C8000044603F0C8FA1548022100233222CDE9A8
:101C9000001013A1AFF2290001F07CFA13480321D0
:101CA00000233222CDE9001011A1AFF2490001F06A
:101CB00071FA1248042100233222CDE9001010A14C
:101CC000AFF2A30001F066FA1048006801F0B0FA24
:101CD00003F0C4FA1CBD0000002C014018000020D5
:101CE0006C6564305F7461736B0000001C00002041
:101CF00062757A7A65725F7461736B0020000020F0
:101D000073746565725F7461736B0000140000206A
:101D100008B501210420FEF7DBFD4FF48070ADF81B
:101D2000000010208DF8030003208DF802006946A2
:101D30000748FEF711FB4FF480710548FEF7B9FB29
:101D400008BD04480068C0430349C1F8A0017047BA
:101D500000080140A00121420000214200B589B0E5
:101D60000121C802FEF7B4FD01210520FEF7B0FDF8
:101D700001211E48FEF7C1FB4FF40060ADF82000C2
:101D800018208DF8230003208DF8220008A9184898
:101D9000FEF7E2FA44F61F60ADF818004720ADF8F0
:101DA00014000020ADF81A00ADF8160005A911487E
:101DB000FEF7C6FE7020ADF804000120ADF8060065
:101DC0000220ADF80C0001A90A48FEF7D0FF082157
:101DD0000848FFF760FB01210648FFF70DFA0121D3
:101DE0000448FFF715FA09B000BD7047400016001F
:101DF00000080140002C01401CB5FFF703FF074815
:101E0000012100238022CDE9001005A1074801F03F
:101E1000C1F901F0E8FE00201CBD00001400002004
:101E200073746172745F7461736B00007F1C0008CF
:101E3000704700BFFEE700BFFEE700BFFEE700BF40
:101E4000FEE770470CB50020019000906C480068D8
:101E500040F480306A49086000BF6948006800F4B7
:101E6000003000900198401C0190009818B901982A
:101E7000B0F5A06FF1D16248006800F4003010B1F5
:101E80000120009001E0002000900098012843D13B
:101E90005C48006840F010005A4908600846006835
:101EA00020F0030008600846006840F00200086067
:101EB00053484068524948600846406848600846B0
:101EC000406840F4806048600846406820F47C1018
:101ED00048600846406840F4E810486008460068DA
:101EE00040F08070086000BF4548006800F0007056
:101EF0000028F9D04248406820F00300404948607B
:101F00000846406840F00200486000BF3C48406816
:101F100000F00C000828F9D10CBD10B5FFF792FFB6
:101F200010BD10B53648006840F001003449086023
:101F3000084640683449084031494860084600680E
:101F4000324908402E4908600846006820F4802085
:101F500008600846406820F4FE0048604FF41F0007
:101F60008860FFF7DAFF4FF000602949086010BD74
:101F700010B5002100200022214B5B6803F00C010A
:101F800021B1042906D0082928D107E0214B224C91
:101F9000236027E01F4B204C236023E0184B5B6835
:101FA00003F47010164B5B6803F48032022303EBDA
:101FB000904022B9194B4343174C23600DE0104B5E
:101FC0005B6803F4003323B1144B4343124C23608A
:101FD00003E0104B4343104C236003E00D4B0E4CC9
:101FE000236000BF00BF064B5B68C3F303130C4CB8
:101FF000E15C094B1B68CB40074C236010BD00001F
:1020000000100240002002400000FFF8FFFFF6FE33
:1020100008ED00E000127A002400002000093D00D5
:102020002800002010B502F090F8012801D003F03C
:102030002DF910BD10B50420FEF70FF936480068E1
:102040003649B0FBF1F0364908703348006833492F
:10205000B0FBF1F44FF47A70444301203149088019
:102060004FF0E020006940F002004FF0E0210861ED
:1020700008464461006940F00100086110BD70B578
:10208000034600224FF0E0267569254E367803FBA3
:1020900006F44FF0E026B16910E04FF0E026B06999
:1020A00088420BD0884202D20E1A324402E02E1A25
:1020B0000E4432440146A24200D300E0EDE700BFE7
:1020C00070BD70B5044602F040F8012810D01548E4
:1020D0000088844206D313480088B4FBF0F52846F4
:1020E00001F0D6FA0F480088B4FBF0F100FB114470
:1020F0004FF47A7104FB01F0FFF7C1FF70BD30B5FA
:102100000446002504E04FF47A70FFF7B8FF6D1C19
:10211000A542F8D330BD00002400002040420F004B
:10212000380000203A00002000BF704700BF4A4A34
:10213000128802F04002002AF9D0C2B2464B1B1DA1
:102140001A80704710B586B00446012144F204009D
:10215000FEF7BEFB4FF40070ADF8140003208DF8BD
:10216000160018208DF8170005A93C48FEF7F4F872
:102170004FF48060ADF8140004208DF8170005A915
:102180003648FEF7E9F825208DF8000003208DF889
:1021900001008DF8020001208DF803006846FEF76B
:1021A00012F801940020ADF80800ADF80A00ADF86F
:1021B0000C00ADF810000C20ADF80E0001A9264867
:1021C000FFF73BFB012240F225512348FFF7CDFBEF
:1021D00001212148FFF7BDFB06B010BD10B540F24C
:1021E00025511D48FFF7A6FC10B31B48FFF722FC42
:1021F000C4B21B48008800F40040C8B918480088E1
:1022000000F4804060B10A2C03D0002014490880FB
:1022100020E01348008840F400401149088019E08C
:102220000D2C06D10E48008840F480400C490880EF
:1022300010E00B480088C0F30D000A490C54084810
:102240000088401C0649088008460088C72801DD30
:102250000020088010BD0000003801400008014047
:1022600040000020B800002000F1080141604FF05C
:10227000FF31816000F10801C1600161002101604E
:10228000704700210161704742684A6093688B6023
:10229000936859609160086103685B1C0360704734
:1022A00010B502460B685C1C0CB9106907E002F11E
:1022B000080000E04068446824689C42FAD94468F9
:1022C0004C604C68A160886041600A611468641CBD
:1022D000146010BD01460A69D1E901309860D1E966
:1022E000010358605068884201D18868506000201E
:1022F00008611068401E10601068704770B5054690
:102300000E462C462CB940F21B12FAA1FEA003F097
:1023100087F802F080FFD4E90F12206801FB020069
:1023200060600020A0632068A060E06B401E226C0B
:10233000216800FB0210E060FF2084F8440084F86C
:1023400045009EB9206908B9012000E00020A8B925
:1023500004F1100001F0F9FD80B14FF08050EE491A
:102360000860BFF34F8FBFF36F8F07E004F11000D9
:10237000FFF77AFF04F12400FFF776FF02F06EFF0B
:10238000012070BD2DE9F04106460D4617469846DE
:10239000069C0DB9246000E02760E66325640121F6
:1023A0002046FFF7ABFF84F850800020A064BDE812
:1023B000F0812DE9F84305460E4690460DB1012007
:1023C00000E0002028B94FF4C472CAA1CEA003F0E7
:1023D00027F80EB9002701E005FB06F707F15400C6
:1023E00002F0A1FD044644B104F1540943464A46B3
:1023F000314628460094FFF7C5FF2046BDE8F88324
:102400002DE9F04104460F4615464FF00008A66B33
:10241000206C40B9206860BB606801F0F4FE804623
:102420000020606025E07DB93946226CA06802F08A
:102430009BFF216CA0680844A060D4E90110884289
:1024400017D32068A06014E03946226CE06802F0DF
:102450008BFF216CE068401AE0602168E0688842E8
:1024600003D2216C6068401AE060022D01D106B1F0
:10247000761E701CA0634046BDE8F0812DE9F34153
:102480000D460098846C00272CB940F6CE1299A115
:102490009DA002F0C5FFA06BE16B884201D2012034
:1024A00000E0002028B940F6CF1292A196A002F0D9
:1024B000B7FFA06BE16B88421BD294F945602A46B6
:1024C00069462046FFF79CFF0746701C60B9606AAA
:1024D00008B9012000E0002050B904F1240001F007
:1024E00034FD28B1012703E0701C40B284F8450098
:1024F00000BF3846BDE8FC8170B5044602F08BFE93
:1025000094F945501AE0A06C38B100212046FFF73D
:10251000B5FF88B101F0EDFD0EE0606A08B9012059
:1025200000E0002038B904F1240001F00EFD18B1DC
:1025300001F0DFFD00E003E0681E45B2002DE2DCA3
:1025400000BFFF2084F8450002F088FE02F063FE21
:1025500094F9445010E0206908B9012000E00020FF
:1025600048B904F1100001F0F0FC08B101F0C1FD20
:10257000681E45B200E001E0002DECDC00BFFF204A
:1025800084F8440002F06AFE70BD70B5054602F0A2
:1025900042FEA86BE96B884201D1012400E00024CF
:1025A00002F05CFE204670BD2DE9FF4383B0064675
:1025B00088461D464FF0000934462CB940F2D92216
:1025C0004CA151A002F02CFFB8F1000F01D1206CFA
:1025D00008B9012000E0002028B940F2DA2245A124
:1025E00049A002F01DFF022D02D1E06B012801D1AC
:1025F000012000E0002028B940F2DB223DA142A0EA
:1026000002F00EFF01F0A1FD08B9059808B90120FC
:1026100000E0002028B940F2DE2236A13AA002F004
:10262000FFFE00BF02F0F7FDA06BE16B884201D313
:10263000022D38D12A4641462046FFF7E1FE0746E3
:10264000A06C68B129462046FFF718FF28B34FF069
:10265000805031490860BFF34F8FBFF36F8F1CE08C
:10266000606A08B9012000E0002068B904F1240084
:1026700001F06BFC88B14FF0805027490860BFF330
:102680004F8FBFF36F8F08E03FB14FF0805022496A
:102690000860BFF34F8FBFF36F8F02F0DFFD0120A3
:1026A00007B0BDE8F083059818B902F0D7FD002007
:1026B000F6E7B9F1000F04D101A801F0CAFC4FF010
:1026C000010902F0CBFD00F082FF02F0A4FD94F9B5
:1026D0004400401C10B9002084F8440094F94500DF
:1026E000401C10B9002084F8450002F0B7FD05A990
:1026F00001A813E04672656552544F535C717565CD
:1027000075652E63000000004572726F723A257382
:102710002C25640D0A00000004ED00E001F0ABFC84
:10272000F8B92046FFF731FFA8B104F11000059970
:1027300001F0ADFB2046FFF7DFFE00F09DFE002814
:102740007FF470AF4FF08050FA490860BFF34F8FAD
:10275000BFF36F8F66E72046FFF7CEFE00F08CFEDA
:1027600060E72046FFF7C8FE00F086FE002097E7EE
:1027700010B504464CB1002060602060E06000238A
:102780001A4619462046FFF70FFF10BD2DE9F0410C
:10279000044601260027224600210120FFF709FEFA
:1027A00005462846FFF7E4FF2846BDE8F08170B5EE
:1027B000064634463CB940F24122AFF2C801AFF2BE
:1027C000B80002F02DFE01F0BDFC616888420CD11A
:1027D000E068401EE060E06828B900231A46194608
:1027E0002046FFF7E1FE012500E00025284670BDE8
:1027F00070B5054602F00FFDA86B08B9012400E092
:10280000002402F02BFD204670BD70B504460D4635
:10281000206C70B1216CE0680844E0606168E06899
:10282000884201D32068E0602846226CE16802F00B
:102830009BFD70BD2DE9FF4782B005460E461F4641
:102840004FF0000A2C463CB940F2DC42AFF25C117A
:10285000AFF24C1002F0E4FD0EB9206C08B9012073
:1028600000E0002038B940F2DD42AFF27811AFF25B
:10287000681002F0D5FD01F068FC08B9049808B9A9
:10288000012000E0002038B94FF49C62AFF29C11A7
:10289000AFF28C1002F0C4FD00BF02F0BCFCD4F813
:1028A0003890B9F1000F3DD0D4F80C803146204665
:1028B000FFF7ABFFDFB9A9F10100A063206810B9F1
:1028C00001F080FD6060206908B9012000E000206F
:1028D00010BB04F1100001F038FBE8B14FF080505C
:1028E00094490860BFF34F8FBFF36F8F14E0C4F8B3
:1028F0000C80606A08B9012000E0002060B904F192
:10290000240001F022FB38B14FF080508949086063
:10291000BFF34F8FBFF36F8F02F0A0FC012006B012
:10292000BDE8F087049818B902F098FC0020F6E79B
:10293000BAF1000F04D1684601F08BFB4FF0010A99
:1029400002F08CFC00F043FE02F065FC94F94400B8
:10295000401C10B9002084F8440094F94500401C44
:1029600010B9002084F8450002F078FC04A96846FC
:1029700001F081FB40BB2046FFF73AFFF0B1206831
:1029800030B902F048FC606801F0EBFB02F066FC35
:1029900004F12400049901F07AFA2046FFF7ACFD17
:1029A00000F06AFD00287FF478AF4FF08050614955
:1029B0000860BFF34F8FBFF36F8F6EE72046FFF7BE
:1029C0009BFD00F059FD68E72046FFF795FD00F0FC
:1029D00053FD2046FFF70CFF0028EED000209EE7B5
:1029E0002DE9F04106460F4634463CB94FF41E72BD
:1029F000AFF20031AFF2F02002F012FD01F0A2FBC5
:102A00006168884204D1E068401CE06001250AE06A
:102A100000233A4619462046FFF70CFF054615B13C
:102A2000E068401CE0602846BDE8F08170B50546CE
:102A30000E460DB1012000E0002038B940F2BD2261
:102A4000AFF25031AFF2403002F0EAFCAE4201D8B2
:102A5000012000E0002038B940F2BE22AFF26C3114
:102A6000AFF25C3002F0DCFC022200212846FFF7C6
:102A7000A0FC044604B1A663204670BD2DE9F05FBA
:102A800080468A4615461E4644463CB940F29F326F
:102A9000AFF2A031AFF2903002F0C2FCBAF1000FF9
:102AA00001D1206C08B9012000E0002038B94FF4B2
:102AB0006872AFF2C031AFF2B03002F0B1FC022E5A
:102AC00002D1E06B012801D1012000E0002038B9DB
:102AD00040F2A132AFF2E431AFF2D43002F0A0FC08
:102AE00002F0ECFB00BF5021EFF3118081F311885D
:102AF000BFF34F8FBFF36F8F00BF0746A06BE16B33
:102B0000884201D3022E2ED194F945B03246514667
:102B10002046FFF775FC0BF10100E0B9A06C58B13D
:102B200031462046FFF7AAFCD0B1CDB10120286084
:102B300016E0000004ED00E0606A08B9012000E042
:102B4000002068B904F1240001F0FFF940B13DB163
:102B50000120286004E00BF1010040B284F8450038
:102B60004FF0010901E04FF0000900BF87F3118821
:102B700000BF4846BDE8F09F2DE9F04707460D46E7
:102B80003C463CB940F23C42AFF29841AFF288403B
:102B900002F046FC206C08B9012000E0002038B9A2
:102BA0004FF48862AFF2B441AFF2A44002F038FCB7
:102BB000206808B9606808B9012000E0002038B931
:102BC00040F24542AFF2D441AFF2C44002F028FCDB
:102BD00002F074FB00BF5021EFF3118081F31188E4
:102BE000BFF34F8FBFF36F8F00BF0646D4F8389006
:102BF000E06B484529D994F945A009F10100A0638B
:102C00000AF10100C8B9A06C40B100212046FFF7CD
:102C100035FCB8B1B5B10120286013E0606A08B98D
:102C2000012000E0002068B904F1240001F08DF9D2
:102C300040B13DB10120286004E00AF1010040B23A
:102C400084F845004FF0010801E04FF0000800BF94
:102C500086F3118800BF4046BDE8F0872DE9F05F9C
:102C600006468946174634463CB94FF4B462AFF283
:102C70007C51AFF26C5002F0D3FBB9F1000F01D1DF
:102C8000206C08B9012000E0002038B940F2A152C0
:102C9000AFF2A051AFF2905002F0C2FB02F00EFB77
:102CA00000BF5021EFF3118081F31188BFF34F8FE4
:102CB000BFF36F8F00BF0546D4F838A0BAF1000FFC
:102CC00022D094F944B049462046FFF79EFDAAF170
:102CD0000100A0630BF1010070B9206908B901205F
:102CE00000E0002068B904F1100001F02EF940B1B5
:102CF0003FB10120386004E00BF1010040B284F8DC
:102D000044004FF0010801E04FF0000800BF85F3D8
:102D1000118800BF4046BDE8F09F2DE9F047064608
:102D2000884634463CB940F2FC52AFF23861AFF20B
:102D3000286002F075FBB8F1000F01D1206C08B9D2
:102D4000012000E0002038B940F2FD52AFF25C6192
:102D5000AFF24C6002F064FB206C08B1012000E08F
:102D6000002038B940F2FE52AFF27861AFF26860ED
:102D700002F056FB02F0A2FA00BF5021EFF31180DF
:102D800081F31188BFF34F8FBFF36F8F00BF0546EC
:102D9000A06B48B1D4F80C9041462046FFF735FDB2
:102DA000C4F80C90012700E0002700BF85F31188CC
:102DB00000BF3846BDE8F08770B504463CB940F224
:102DC0002F62AFF2D061AFF2C06002F029FB02F0D7
:102DD00022FAA56B02F042FA284670BD70B504468F
:102DE00025463DB940F24162AFF2F861AFF2E860CA
:102DF00002F016FB02F00FFAD5E90E10461A02F0A7
:102E00002DFA304670BD70B504463CB940F25162AF
:102E1000AFF22071AFF2107002F002FBA56B2846F2
:102E200070BD014600200EE0764A02EBC0025268F7
:102E30008A4207D10022734B43F8302003EBC003D2
:102E40005A6002E0401C0828EED300BF704770B5FE
:102E5000044625463DB940F25D62AFF26871AFF2BB
:102E6000587002F0DDFA2846FFF7DBFF284602F033
:102E7000DDF870BD0146C86C7047C16470470146FB
:102E800091F85000704770B505463DB940F2937215
:102E9000AFF2A071AFF2907002F0C2FAA86B08B95D
:102EA000012400E00024204670BD70B504463CB902
:102EB00040F2BA72AFF2C471AFF2B47002F0B0FA7D
:102EC000A06BE16B884201D1012500E00025284676
:102ED00070BD024600200BE04A4B53F8303033B946
:102EE000484B43F8301003EBC0035A6002E0401C2B
:102EF0000828F1D300BF70470246002000210AE0F5
:102F0000404B03EBC1035B68934203D13D4B53F845
:102F1000310002E0491C0829F2D300BF70472DE9B7
:102F2000F04105460E4617462C4602F074F994F916
:102F30004400401C10B9002084F8440094F9450076
:102F4000401C10B9002084F8450002F087F9A06BFE
:102F500028B93A46314604F1240000F0DBFF204650
:102F6000FFF7CAFABDE8F08170B5044600220421DB
:102F70002046FFF71EFA0546284670BD70B5044688
:102F80000E4602F048F9A06C08B1002505E0A06BE0
:102F900008B1002501E0A664012502F05FF928468A
:102FA00070BD2DE9F04105460F462E46B06CB84283
:102FB00001D000240AE0B06B08B1002406E002F062
:102FC0002AF90020B06402F049F901242046BDE846
:102FD000F08138B505460C460020009000232246BB
:102FE00069462846FFF726FC009838BD38B50446E8
:102FF00000200090002269462046FFF72FFE00982F
:1030000038BD00008001002010B5002407E004EB6B
:103010008401FB4A02EB8100FFF726F9641C202C97
:10302000F5D3F848FFF720F9F748FFF71DF9F748FF
:10303000FFF71AF9F648FFF717F9F648FFF714F902
:10304000F048F5490860F048F449086010BD10B533
:10305000044602F0E0F8F2480068401CF0490860BD
:10306000F048006840B9EF4804600846006801284D
:103070000DD1FFF7C9FF0AE0EB48006838B9E9480D
:103080000068C06AE16A884201D8E6480460E748FF
:103090000068401CE549086008460068606494F8D0
:1030A0002C1001208840E24909680843E049086083
:1030B000E16A01EB8101D24A02EB8100211DFFF799
:1030C000E3F802F0CBF8D848006868B1D54800684A
:1030D000C06AE16A884207D24FF08050D549086043
:1030E000BFF34F8FBFF36F8F10BD2DE9F05F8246A6
:1030F0000F4690469B460A9E0C9C4FEA8801A522EB
:10310000206B02F043F9A8F10100216B01EB80096B
:1031100029F0070909F0070008B9012000E00020A4
:1031200028B940F22B32C4A1C8A002F079F90025D9
:1031300007E0795D04F134004155785D00B902E0A3
:103140006D1C102DF5D300BF002143200155202E0A
:1031500000D31F26E662E66400202065201DFFF7ED
:1031600090F804F11800FFF78CF82461C6F12000F4
:10317000A06164620020606584F858005A46514698
:10318000484601F0D5FF20600B9808B10B98046009
:10319000BDE8F09F2DE9FF4F85B080468946174670
:1031A000DDE912ABB80001F0BEFE064656B15C2068
:1031B00001F0B9FE04460CB1266304E0304601F08C
:1031C00035FF00E000247CB10020CDE900ABCDE963
:1031D00002403A4649464046089BFFF786FF204694
:1031E000FFF735FF012501E04FF0FF35284609B014
:1031F000BDE8F08F88490968096809B9012100E034
:10320000002121B14FF0FF31944A116006E082495C
:103210000968C968C868914A41681160704710B56B
:103220000446206B01F002FF204601F0FFFE10BDB6
:1032300070B5054601F0EFFF15B97A48006800E067
:1032400028460446201DFFF745F878B9E06A00EBF0
:1032500080006B4951F8200040B994F82C100120EF
:10326000884073490968814371480160A06A18B1B8
:1032700004F11800FFF72EF86C480068401C6B49F9
:10328000086068480068844209D1211D6048FEF743
:10329000FBFF73480068401C7149086009E0604802
:1032A0000068401E5E4908602046FFF7B8FFFFF740
:1032B000A1FF01F0D3FF5C480068C0B15948006825
:1032C000844214D16748006808B9012000E000205A
:1032D00028B940F2654258A15CA002F0A1F84FF075
:1032E000805054490860BFF34F8FBFF36F8F70BD9C
:1032F0002DE9F0414FF000085A480068002872D1CB
:1033000059480068451C58480560EDB942480068B6
:10331000006808B9012000E0002028B940F6D91261
:1033200045A14AA002F07CF83B4807683B4800688A
:1033300039490860394807604C480068401C4B49CF
:103340000860FFF757FF00BF4448006885423CD340
:1033500000BF31480068006808B9012000E0002083
:1033600020B14FF0FF303D4908602DE02A48006849
:10337000C068C4686668B54202D23848066023E077
:10338000201DFEF7A7FFA06A18B104F11800FEF790
:10339000A1FF94F82C1001208840254909680843B2
:1033A00023490860E16A01EB8101154A02EB8100C3
:1033B000211DFEF769FF1B49E06A0968C96A884256
:1033C000C7D34FF00108C4E700BF16480068C06AC1
:1033D00000EB80000A4951F82000012801D94FF084
:1033E000010805E0FFE722480068401C204908600A
:1033F0002048006808B14FF001084046BDE8F08160
:10340000C001002040040020540400206804002073
:103410007C04002090040020480000204C00002084
:1034200054000020440000206000002070000020B4
:103430005C00002004ED00E04672656552544F5375
:103440005C7461736B732E63000000004572726FD1
:10345000723A25732C25640D0A00000074000020C8
:10346000500000207C000020580000206C0000204C
:10347000640000206800002070B500240026FE488B
:10348000006838B94FF4FD62AFF25401AFF2440066
:1034900001F0C6FF01F0BFFEF7480068401EF64984
:1034A00008600846006800284FD1F44800680028EA
:1034B0004BD024E0F248C068C46804F11800FEF75D
:1034C00009FF201DFEF706FF94F82C10012088400C
:1034D000EC4909680843EB490860E16A01EB8101A6
:1034E000E94A02EB8100211DFEF7CEFEE749E06AC2
:1034F0000968C96A884202D30120E5490860E048AA
:10350000006808B9012000E000200028D2D00CB1EA
:10351000FFF770FEDF48056865B100BFFFF7E8FE02
:1035200010B10120DA4908606D1E002DF6D100208F
:10353000D8490860D648006838B101263007D64916
:103540000860BFF34F8FBFF36F8F01F087FE3046E7
:1035500070BD2DE9F04105460E46D0480768CB48BE
:103560000068001DFEF7B6FE50B9C848006890F824
:103570002C1001208840C34909688143C14801607B
:10358000681C38B936B1C1480168091DC448FEF746
:103590007BFE1AE07C19BD4800684460BC4207D23B
:1035A000BA480168091DBF480068FEF779FE0CE0C3
:1035B000B6480168091DBC480068FEF771FEBB48AB
:1035C0000068844201D2B9480460BDE8F081AA488D
:1035D0000068401CA849086070472DE9F047044680
:1035E0000F464FF000093CB940F27942AFF2B811F2
:1035F000AFF2A81001F014FF0FB1012000E000208D
:1036000038B940F27A42AFF2D011AFF2C01001F0F7
:1036100007FF9948006808B9012000E0002038B988
:1036200040F27B42AFF2F011AFF2E01001F0F8FE91
:10363000FFF7CDFF994806682068C5192068B04299
:1036400007D92068A8420BD9B54209D94FF0010922
:1036500006E02068A84201D8B54201D94FF001091F
:103660002560B9F1000F03D0A81B0021FFF771FFFF
:10367000FFF702FF8046B8F1000F07D14FF08050EE
:1036800085490860BFF34F8FBFF36F8FBDE8F087A8
:1036900070B504460025BCB17748006808B9012020
:1036A00000E0002038B940F2CF42AFF27421AFF20F
:1036B000642001F0B5FEFFF78AFF00212046FFF7E6
:1036C00048FFFFF7D9FE05463DB94FF080507249DB
:1036D0000860BFF34F8FBFF36F8F70BD2DE9F041CE
:1036E00007463E463EB940F2FB42AFF2B421AFF28C
:1036F000A42001F095FE65480068864201D10024AF
:103700001EE001F088FD756901F0A8FD66480068BB
:10371000854203D063480068854201D102240FE04E
:103720005F48854205D1B06A08B9032408E0022445
:1037300006E05F48854200D00DB9042400E0012472
:103740002046BDE8F08170B5044601F064FD14B96F
:103750004E48006800E020460646F56A01F07EFD0E
:10376000284670BD2DE9F041054601F0A7FD00BFD8
:103770005021EFF3118081F31188BFF34F8FBFF316
:103780006F8F00BF044615B94048006800E0284626
:103790000746FE6A00BF84F3118800BF3046BDE8CB
:1037A000F0812DE9F04780460D464FF00009202DAD
:1037B00001D2012000E0002038B94FF4B062AFF22E
:1037C0008831AFF2783001F02BFE202D00D31F2579
:1037D00001F021FDB8F1000F02D12C48006800E093
:1037E00040460446E66CAE4277D0B5420BD9274836
:1037F000006884420DD025480068C06AA84208D8F5
:103800004FF0010905E021480068844201D14FF0E2
:103810000109E76AE16AE06C884200D1E562E5648B
:10382000A06900F0004010B9C5F12000A06107EBCD
:103830008701154A02EB81016069884201D10120AC
:1038400000E00020B0B3201DFEF744FD30B9012098
:10385000B8400C49096881430A48016094F82C106B
:103860000120884007490968084306490860E16A61
:1038700001EB8101044A1FE07C000020540000207D
:10388000680400205C000020C001002044000020EB
:10389000680000206400002004ED00E058000020D3
:1038A000900400204C0000204800002074000020FC
:1038B0007C04002005E010E002EB8100211DFEF7F2
:1038C000E3FCB9F1000F07D04FF08050FB490860CE
:1038D000BFF34F8FBFF36F8F00BF01F0BFFCBDE898
:1038E000F08710B5F648006818B10120F549086066
:1038F0002FE00020F3490860F3480068B0FA80F038
:10390000C0F11F0404EB8400F04951F8200008B115
:10391000012000E0002038B940F6F622AFF2E8417D
:10392000AFF2D84001F07CFD04EB8401E74A02EBE2
:10393000810041684968416000F1080142688A429B
:1039400002D14168496841604168C968E04A116034
:1039500000BF10BD70B5054601F05DFC15B9DC482F
:10396000006800E028460446201DFEF7B3FC78B945
:10397000E06A00EB8000D54951F8200040B994F886
:103980002C1001208840D04909688143CE4801604D
:10399000A06A18B104F11800FEF79CFC211DCD4867
:1039A000FEF772FC01F05AFCCB48006828B101F028
:1039B00032FCFFF71FFC01F051FCC548006884424F
:1039C00026D1C5480068B8B1BD48006808B90120D3
:1039D00000E0002038B940F25762AFF2A451AFF2D4
:1039E000945001F01DFD4FF08050B4490860BFF3C2
:1039F0004F8FBFF36F8F0BE0B6480068B749096877
:103A0000884203D10020B249086001E0FFF769FF56
:103A100070BD70B5054600262C463DB940F2816266
:103A2000AFF2EC51AFF2DC5001F0FAFCA949606949
:103A3000884201D1012000E0002070B1A849A06AAD
:103A4000884201D1012000E0002030B9A06A08B905
:103A5000012000E0002000B10126304670BD70B5A5
:103A600005462C463DB940F2AB62AFF23461AFF28D
:103A7000246001F0D5FC74B39548006884422AD0D4
:103A800001F0C9FB2046FFF7C4FF10B3201DFEF76D
:103A900021FC94F82C10012088408B4909680843C8
:103AA00089490860E16A01EB8101884A02EB8100E3
:103AB000211DFEF7E9FB8649E06A0968C96A884268
:103AC00007D34FF080507D490860BFF34F8FBFF39D
:103AD0006F8F01F0C3FB70BD2DE9F0410646002752
:103AE00034463EB940F2E262AFF2B461AFF2A46094
:103AF00001F096FC01F0E2FB00BF5021EFF31180D2
:103B000081F31188BFF34F8FBFF36F8F00BF05465E
:103B10002046FFF77EFF20B369480068E0B96C4992
:103B2000E06A0968C96A884200D30127201DFEF7B0
:103B3000D1FB94F82C1001208840634909680843A0
:103B400061490860E16A01EB8101604A02EB810092
:103B5000211DFEF799FB04E004F118016048FEF70F
:103B600093FB00BF85F3118800BF3846BDE8F081A4
:103B700070B523E0FFF72BFD5A48006808B9012013
:103B800000E000200546FFF777FCBDB901F043FBDC
:103B90005448C068C468201DFEF79CFB4F4800686D
:103BA000401E4E49086050480068401E4E4908605B
:103BB00001F054FB2046FFF732FB00BF4A48006883
:103BC0000028D7D170BD00BFFFF7D2FF3F48006883
:103BD0000128F9D94FF0805038490860BFF34F8F62
:103BE000BFF36F8FF0E71CB5404800210B468222DF
:103BF000CDE900103EA14048FFF7CCFA0446012C65
:103C000002D100F0EDFF0446012C15D100BF502079
:103C100080F31188BFF34F8FBFF36F8F00BF4FF05A
:103C2000FF303649086001202B49086000203449E4
:103C3000086001F099FA0DE0601C08B1012000E075
:103C4000002038B940F28472AFF61401AFF60400D8
:103C500001F0E6FB1CBD10B500BF502080F31188B9
:103C6000BFF34F8FBFF36F8F00BF00201A4908606A
:103C700001F0C0FA10BD22490868704770B501F024
:103C80001DFB00251E480468204670BD13480068CF
:103C9000704770B5044614B90D48006800E020462E
:103CA00005463DB940F68C02AFF67401AFF66400EC
:103CB00001F0B6FB05F1340070BD000004ED00E03A
:103CC0007C000020680000205C000020C001002073
:103CD00044000020900400206000002054000020D8
:103CE000680400207C0400205000002078000020A0
:103CF00049444C4500000000C73B00087400002008
:103D0000580000200246002101E0521C491C107896
:103D1000A528FAD0890888B270472DE9F0410746F6
:103D20000C4690461E4617B9F748006800E0384632
:103D30000546256005F134006060E86A2061286B63
:103D4000E061686CA060207B032807D1FFF73FFC8F
:103D5000A86A08B102202073FFF78EFBE86C60614F
:103D60000020A061052E01D0267303E03846FFF73E
:103D7000B5FC2073B8F1000F04D0286BFFF7C2FF29
:103D8000208401E000202084BDE8F0812DE9F04787
:103D900007460C4690460026206848B320464168F6
:103DA0004968416000F1080142688A4202D14168D5
:103DB000496841604168D1F80C9000BF20464168D5
:103DC0004968416000F1080142688A4202D14168B5
:103DD000496841604168CD6806EBC60007EB800189
:103DE000434601222846FFF798FF761C4D45E5D152
:103DF0003046BDE8F0872DE9F04105468846164675
:103E000000242027FFF7E3FBC0480068804539D332
:103E100000BF7F1E07EB8702BD4B03EB820104EB63
:103E2000C40205EB82000122FFF7B0FF0444002F1B
:103E3000EFD104EBC40105EB81000222B54909680A
:103E4000FFF7A4FF044404EBC40105EB8100022248
:103E5000B1490968FFF79AFF044404EBC40105EB7C
:103E600081000422AD49FFF791FF044404EBC40133
:103E700005EB81000322AA49FFF788FF04440EB135
:103E800000203060FFF7F8FA2046BDE8F08170B5F9
:103E900004460D463CB940F60632AFF66421AFF653
:103EA000542001F0BDFA9848016818312046FEF709
:103EB000F7F901212846FFF74CFB70BD70B50446A9
:103EC0000D4616463CB940F61732AFF69421AFF6D0
:103ED000842001F0A5FA9348006808B1012000E0B1
:103EE000002038B940F61B32AFF6B421AFF6A4205B
:103EF00001F096FA45F000408349096888618248DC
:103F0000016818312046FEF7BFF901213046FFF75E
:103F100020FB70BD70B505460E4614463DB940F60F
:103F20003132AFF6EC21AFF6DC2001F079FA7648B9
:103F3000016818312846FEF7A7F90CB14FF0FF369B
:103F400021463046FFF705FB70BD70B50646F068A8
:103F5000C4683CB940F66132AFF62431AFF6143094
:103F600001F05EFA04F11800FEF7B4F96D4800683C
:103F7000A8B9201DFEF7AEF994F82C100120884056
:103F800069490968084368490860E16A01EB8101F1
:103F90005F4A02EB8100211DFEF776F904E004F18F
:103FA00018016248FEF770F95749E06A0968C96A62
:103FB000884204D9012501205D49086000E0002500
:103FC000284670BD2DE9F04105460F46554800686A
:103FD00008B1012000E0002038B940F69932AFF670
:103FE000A831AFF6983001F01BFA47F00040286086
:103FF000EC683CB940F6A132AFF6C431AFF6B4304C
:1040000001F00EFA2846FEF765F9201DFEF762F969
:1040100094F82C100120884043490968084342491C
:104020000860E16A01EB8101394A02EB8100211D40
:10403000FEF72AF93449E06A0968C96A884204D956
:10404000012601203A49086000E000263046BDE81C
:10405000F08110B504463CB940F6C132AFF62841B4
:10406000AFF6184001F0DCF93248006820603248B1
:104070000068606010BD2DE9F04104460D463CB972
:1040800040F6CB32AFF65041AFF6404001F0C8F9F0
:104090003DB940F6CC32AFF66041AFF6504001F08A
:1040A000BFF901F0B8F8244807682868401C08B92F
:1040B000002619E01F4920680968884204D060681A
:1040C000B84201D801260FE06068381A2968884292
:1040D00009D228686168791A401A28602046FFF7DB
:1040E000B8FF002600E0012601F0B8F83046BDE830
:1040F000F08101200E4908607047014611B10A465F
:10410000906C00E000207047440000205400002024
:10411000C0010020480000204C0000207C0400204A
:10412000900400207C0000205C0000206804002037
:10413000680000206C0000205800002008B10246F2
:1041400091647047FB4908687047FB49096809B9E1
:10415000012005E0F949096809B9022000E00020C2
:10416000704770B505462C46002D4BD0F149E06AEA
:104170000968C96A884245D2A06900F0004028B9A0
:10418000EC480068C06AC0F12000A061E16A01EB60
:104190008101EB4A02EB81016069884201D1012073
:1041A00000E0002050B3201DFEF794F878B9E06AD3
:1041B00000EB8000E24951F8200040B994F82C103F
:1041C00001208840DF4909688143DE480160D94801
:1041D0000068C06AE06294F82C1001208840D94938
:1041E00009680843D7490860E16A01EB8101D44AB4
:1041F00002EB8100211DFEF747F803E0CD4800687F
:10420000C06AE06270BD70B505462C460026002DE0
:104210004FD0C8480068844201D1012000E000204E
:1042200038B940F6C762AFF6F051AFF6E05001F092
:10423000F7F8206D38B940F6C962AFF60461AFF601
:10424000F45001F0EDF8206D401E2065E16CE06A4D
:1042500088422ED0206D60BB201DFEF73BF878B958
:10426000E06A00EB8000B64951F8200040B994F8AC
:104270002C1001208840B34909688143B14801608E
:10428000E06CE062E06AC0F12000A06194F82C10BC
:1042900001208840AB4909680843AA490860E16ADF
:1042A00001EB8101A64A02EB8100211DFDF7ECFF25
:1042B0000126304670BD70B505460E46314628468B
:1042C00001F07DF8284601F073F8044602E0202052
:1042D0002855641C0F2CFAD300202855281970BDCE
:1042E0007FB50546002028709748006803909649DE
:1042F000096801EBC101880000F015FE0446002C9E
:1043000053D0002220460399FFF775FD039000204B
:10431000029043E0029800EBC00004EB8000007BB9
:10432000012806D0022806D0032806D0042808D188
:1043300005E0522607E0422605E0532603E0442626
:1043400001E0002600BF00BF029800EBC00004EBB4
:10435000800041682846FFF7AEFF0546029800EB53
:10436000C00004EB80008068029901EBC10104EBFE
:104370008101098CCDE90010029800EBC00004EB2C
:104380008000324671A10369284601F059F8284699
:1043900001F00EF805440298401C0290DDE902018C
:1043A0008842B7D3204600F041FE7FBD61490968CD
:1043B000886960490968C96AC1F120015D4A1268CB
:1043C000916170475B48006830B15A49096801F152
:1043D0005000096D491C016056480068704770B56F
:1043E00006460D4600F017FF52480068406D88B938
:1043F00001205049096881F858005DB10121284623
:10440000FFF7A7F84FF0805054490860BFF34F8F73
:10441000BFF36F8F00F022FF00F0FDFE45480068FB
:10442000446D4CB126B1002042490968486503E05B
:10443000601E40490968486500203E49096881F8C6
:10444000580000F00BFF204670BD2DE9F0410746F3
:10445000884614461D4600F0DEFE3648006890F897
:104460005800022818D03349096801F15400496DF9
:10447000B943016001202F49096881F858005DB1F6
:1044800001212846FFF765F84FF080503349086056
:10449000BFF34F8FBFF36F8F00F0E0FE00F0BBFE65
:1044A0001CB124480068406D20602248006890F8E4
:1044B0005800012801D1002608E01E49096801F1D1
:1044C0005400496D21EA08010160012600201949C4
:1044D000096881F8580000F0C1FE3046BDE8F0815F
:1044E0002DE9F04706460D46174698464FF0010A5B
:1044F00036B941F2FD021A4901F1140000F090FFB3
:10450000344600F088FEB8F1000F02D0606DC8F8A4
:10451000000094F85890022084F85800052F30D2FB
:10452000DFE807F02E0320242600606D2843606535
:1045300027E0000044000020600000207C000020F4
:10454000C00100205C000020540000200925630900
:1045500025750925750925750D0A000004ED00E093
:1045600038340008606D401C60650AE0656508E04D
:10457000B9F1020F01D0656501E04FF0000A00E0DB
:1045800000BF00BFB9F1010F2FD1201DFDF7A2FE22
:1045900094F82C10012088409B49096808439A49E7
:1045A0000860E16A01EB8101984A02EB8100211D5C
:1045B000FDF76AFEA06A08B9012000E0002030B9CA
:1045C00041F23512924901F1140000F029FF91499E
:1045D000E06A0968C96A884207D94FF080508E495D
:1045E0000860BFF34F8FBFF36F8F00F037FE504668
:1045F000BDE8F0872DE9F84F07460E4690469946EC
:10460000DDF828B00120009037B941F268128049E6
:1046100001F1140000F004FF00F050FE3C4600BF22
:104620005021EFF3118081F31188BFF34F8FBFF357
:104630006F8F00BF0546B9F1000F02D0606DC9F859
:10464000000094F858A0022084F85800B8F1050F33
:1046500017D2DFE808F01503070B0D00606D30433B
:1046600060650EE0606D401C60650AE0666508E00C
:10467000BAF1020F01D0666501E00020009000E071
:1046800000BF00BFBAF1010F3AD1A06A08B90120FA
:1046900000E0002030B941F2AF125D4901F1140091
:1046A00000F0BEFE5D480068A8B9201DFDF712FEAF
:1046B00094F82C1001208840534909680843524956
:1046C0000860E16A01EB8101504A02EB8100211D83
:1046D000FDF7DAFD04E004F118015148FDF7D4FDBF
:1046E0004C49E06A0968C96A884209D9BBF1000FE0
:1046F00003D00120CBF8000002E001204949086006
:1047000000BF85F3118800BF0098BDE8F88F2DE940
:10471000F04105460F4635B941F2E3123C4901F13B
:10472000140000F07DFE00F0C9FD2C4600BF5021B2
:10473000EFF3118081F31188BFF34F8FBFF36F8FB9
:1047400000BF064694F85880022084F85800606D37
:10475000401C6065B8F1010F37D1A06A08B901208B
:1047600000E0002030B941F20922294901F114008A
:1047700000F056FE29480068A8B9201DFDF7AAFDE3
:1047800094F82C10012088401F49096808431E49ED
:104790000860E16A01EB81011C4A02EB8100211DE6
:1047A000FDF772FD04E004F118011D48FDF76CFDF2
:1047B0001849E06A0968C96A884206D917B1012018
:1047C000386002E001201749086000BF86F31188B5
:1047D00000BFBDE8F08170B5054615B90D48006809
:1047E00000E02846064600F016FD96F8580002281C
:1047F00004D1002086F85800012400E0002400F0D5
:104800002DFD204670BD00005C000020C00100208E
:10481000383400084400002004ED00E07C00002053
:1048200068040020680000202DE9F04104460D4690
:1048300016461F464FF0000865602461B5420CD84B
:10484000F01BA169884202D34FF0010811E0211D3D
:10485000F7480068FDF724FD0BE0BE4204D2BD42DC
:1048600002D34FF0010804E0211DF2480068FDF773
:1048700017FD4046BDE8F0812DE9FF4704460D468F
:1048800016461F46DDF830804FF000092CB94FF472
:10489000D372E9A1EDA000F0C3FDF048006810B3A9
:1048A000009501960294062D15DAFFF74EFC0228BA
:1048B00008D1002342466946E8480068FDF774FEC7
:1048C000814610E000231A466946E4480068FDF777
:1048D0006BFE814607E000233A466946DF480068E0
:1048E000FEF7CCF88146484604B0BDE8F0872DE9D4
:1048F000F8432DE0CF480068C0680568CD480068DF
:10490000C068C468201DFDF7E5FC2046616A884741
:10491000E06901281CD1A0694619AE4207D966603A
:104920002461211DC3480068FDF7BAFC10E0002097
:1049300003462A46014600902046FFF79DFF0746A2
:104940002FB940F29232BCA1C0A000F069FD00BFB7
:10495000B8480068006808B9012000E0002000287D
:10496000C8D0B448D0F80080B1480068B1490860A8
:10497000AF48C0F80080BDE8F88370B50446FFF783
:104980007AF90546B6480068854204D2FFF7AFFFC2
:104990000120206001E000202060B1480560284629
:1049A00070BDF0B587B070E0039800280CDA04AE53
:1049B0002EB940F2E722A0A1A4A000F031FDD6E973
:1049C0000020B168904700BF039800285DDB059C7C
:1049D000606908B9012000E0002010B9201DFDF732
:1049E00079FC02A8FFF7C9FF054603980A284AD2B6
:1049F000DFE800F00905072C2E4506082D2F00BF23
:104A000000BF00BF00BF0498A269811803462A4670
:104A10002046FFF709FFC0B12046616A8847E06978
:104A2000012812D1002000900498A16942180023A7
:104A300019462046FFF720FF07462FB940F22132E2
:104A40007DA182A000F0ECFC00BF1DE000BF1BE0D8
:104A500000BF0498A061A06908B1012000E0002017
:104A600028B94FF44E7274A178A000F0D9FCA06967
:104A700041192B462A462046FFF7D6FE04E0204681
:104A800000F0D4FA00E000BF00BF00231A4603A9DB
:104A900072480068FDF7CEFE002885D107B0F0BD52
:104AA000F8B505460F4663480068C068C468201D15
:104AB000FDF710FCE069012818D1A06941192B46C7
:104AC0003A462046FFF7B0FE80B1002003462A4652
:104AD000014600902046FFF7CFFE06462EB94FF460
:104AE000027255A159A000F09BFC00BF2046616AEC
:104AF0008847F8BDF8B505460C46FEF768FD6846E0
:104B0000FFF73BFF0646009820BB44B9B54206D8E4
:104B1000FEF7B2FC31462846FFF7C2FF1CE03CB16D
:104B200043480068006808B9012000E000200446FE
:104B3000A91B224649480068FEF7F1F9FEF79CFCE4
:104B400050B94FF0805047490860BFF34F8FBFF313
:104B50006F8F01E0FEF790FCF8BD0146354A126800
:104B600012680AB9012200E000220A600A6822B92C
:104B7000304A1268D268106800E00020704708B51B
:104B800000BF6846FFF7E9FF044620460099FFF79B
:104B9000B1FFFFF706FFF4E710B500F03CFB2F482C
:104BA0000068D0B93048FDF75FFB3048FDF75CFB8B
:104BB0002D48204908602D481D4908600022102119
:104BC0000520FDF7F6FB254908600846006820B17E
:104BD00027A122480068FEF77CF900F03FFB10BDDA
:104BE0001CB50024FFF7D8FF1C48006858B12248C4
:104BF0001F2100234FF48272CDE900101FA121482C
:104C0000FEF7C8FA04462CB940F233120AA10FA0ED
:104C100000F006FC20461CBD2DE9F04706460D4677
:104C200017469846DDE908940DB101202DE02BE0F0
:104C300084000020800000204672656552544F5366
:104C40005C74696D6572732E630000004572726F4B
:104C5000723A25732C25640D0A000000880000209C
:104C60009000002004ED00E0A4040020B80400201F
:104C7000546D7251000000008C000020546D7220B1
:104C8000537663007F4B0008002038B94FF4C6729A
:104C9000AFF25C01AFF24C0000F0C2FB5CB1FFF779
:104CA0007BFF2660A561E761C4F82080C4F82490EA
:104CB000201DFDF7E6FABDE8F0872DE9FC47054623
:104CC0000E4617469846DDF828902C2000F02BF968
:104CD00004463CB143463A4631462846CDE9009465
:104CE000FFF79AFF2046BDE8FC8710B55B480068D7
:104CF00008B1012000E0002038B94FF4E872AFF2AB
:104D0000C801AFF2B80000F08BFB5448006810BD3A
:104D100070B5044625463CB940F2D912AFF2E8011D
:104D2000AFF2D80000F07CFBA86970BD70B50446F6
:104D300025463CB940F2E312AFF20411AFF2F400A1
:104D400000F06EFB6E68304670BD70B504462546B7
:104D50003CB940F2ED12AFF22011AFF2101000F0AA
:104D60005FFB286870BD70B5044626463CB940F22A
:104D7000DA32AFF23C11AFF22C1000F051FB00F030
:104D80004AFA706908B9012000E0002080F00105AE
:104D900000F064FA284670BD70B5044626463CB95A
:104DA00040F2EF32AFF27011AFF2601000F038FB5A
:104DB00000F031FA356A00F051FA284670BD70B53E
:104DC00004460D4626463CB940F2FF32AFF2981138
:104DD000AFF2881000F024FB00F01DFA356200F0FD
:104DE0003DFA70BD2DE9FF4104460D4616461F46AB
:104DF0006FF00100009001940295039600233A465B
:104E0000694617480068FDF739FE8046404604B001
:104E1000BDE8F0812DE9FF4104460D4616461F46C8
:104E20000F48006838B940F22B42AFF2F411AFF2EC
:104E3000E41000F0F5FA4FF0FF3000900194029575
:104E4000039600233A46694605480068FDF7ACFB27
:104E50008046404604B0BDE8F08100008C00002090
:104E60008800002010B50146924800E00068036801
:104E70008B42FBD30246436813448B4204D1436800
:104E80004C682344436001460A464B681344046857
:104E9000A34211D1884C03682468A34208D04B6810
:104EA0000468646823444B6003681B680B6005E07A
:104EB000814B1B680B6001E003680B60884200D0E7
:104EC000016010BD30B54FF488437C4800F0070402
:104ED0002CB1C01D20F00700784C041B1B1B0246A0
:104EE000744C22600024734D6C60D018083820F098
:104EF0000700714C206000246F4D2D686C606E4D72
:104F00002D682C601146441A4C606B4C24680C6070
:104F10006B4D4C682C606B4D4C682C604FF000441E
:104F2000694D2C6030BD2DE9F04104464FF000087A
:104F3000FEF74DFB6048006808B9FFF7C3FF624801
:104F40000068204000285FD1A4B1083404F00700B5
:104F500080B104F00700C0F10800044404F0070029
:104F600008B9012000E0002020B9BF2257A160A0AD
:104F700000F056FA002C47D052480068844243D8CB
:104F80004C4E3046056801E02E462D686868A04208
:104F900002D228680028F7D147480068854233D0FC
:104FA000306800F10808286830606868001B102825
:104FB00013D92F1907F0070008B9012000E00020DD
:104FC00020B9EC2241A14AA000F02AFA6868001B2F
:104FD00078606C603846FFF745FF3A4968680968B1
:104FE000081A384908600846006835490968884247
:104FF00003D2344800683249086033496868096858
:105000000843686000202860FEF736FA08F00700C1
:1050100008B9012000E0002028B94FF496722BA1B6
:1050200033A000F0FDF94046BDE8F08170B50646BA
:105030003546002E35D0083D2C4623496068096866
:10504000084008B1012000E0002028B94FF4A07208
:105050001EA127A000F0E4F9206808B9012000E0B3
:10506000002028B940F2411218A121A000F0D8F97F
:10507000154960680968084098B1206888B91249E4
:105080006068096888436060FEF7A1FA0D496068AE
:10509000096808440B4908602046FFF7E3FEFEF765
:1050A000EBF970BD07480068704705480068704715
:1050B00070470000940000209C000020CC040020D9
:1050C000A4000020A0000020A80000204672656512
:1050D00052544F535C706F727461626C655C4D65C5
:1050E0006D4D616E675C686561705F342E630000B2
:1050F0004572726F723A25732C25640D0A00000008
:1051000084480068401C08B9012000E0002020B954
:10511000F42281A18AA000F083F900BF502080F31F
:105120001188BFF34F8FBFF36F8F00BF00BFFEE743
:10513000001F4FF080730360001F21F00103036024
:10514000001F834B03601438026020387047814889
:1051500000684FF47A71B0FBF1F0401E4FF0E0218F
:1051600048610720086170471CB57B4801460978F3
:105170000191FF21024611700146097800919DF8C6
:10518000001001F05001754A11700721744A116036
:1051900009E073490968491E714A11609DF80010C1
:1051A0004906090E00919DF8001001F08001802948
:1051B000EFD06B4909680902694A116011460988F4
:1051C00001F4E0611160644A01991170654800685A
:1051D00040F47000634908600846006840F0704081
:1051E0000860FFF7B4FF00204A490860FAF79AFF09
:1051F00000201CBD10B547480068B0F57A7F01D18A
:10520000012000E0002028B94FF4B57242A14CA063
:1052100000F006F910BD10B500BF502080F31188D2
:10522000BFF34F8FBFF36F8F00BF3A480068401C39
:10523000384908600846006801280ED149481C38E2
:105240000068C0B208B9012000E0002028B94FF47E
:10525000BD7231A13AA000F0E3F810BD10B52D48A1
:10526000006828B940F281122BA135A000F0D8F8CF
:1052700028480068401E274908600846006820B991
:10528000002080F3118800BF00BF10BD10B500BF23
:10529000502080F31188BFF34F8FBFF36F8F00BF93
:1052A000FEF726F820B14FF080502E491C390860D7
:1052B00000BF002080F3118800BF10BD70B5FAF761
:1052C00067FF0546102D11D305F1E02090F8F0435B
:1052D00022480078844201DB012000E0002028B948
:1052E0004FF42A720CA116A000F09AF81D48143849
:1052F000006800F4E0601A490968884201D801207A
:1053000000E0002028B94FF42E7203A10CA000F099
:1053100087F870BDAC0000204672656552544F534B
:105320005C706F727461626C655C525644535C4190
:10533000524D5F434D335C706F72742E63000000FA
:105340004572726F723A25732C25640D0A000000B5
:10535000015100082400002000E400E0B00000201B
:10536000B400002020ED00E040EA01039B0703D0D9
:1053700009E008C9121F08C0042AFAD203E011F894
:10538000013B00F8013B521EF9D27047D2B201E056
:1053900000F8012B491EFBD270470022F6E710B53A
:1053A00013460A4604461946FFF7F0FF204610BD93
:1053B000421C10F8011B0029FBD1801A70470346DC
:1053C00011F8012B00F8012B002AF9D1184670477B
:1053D00030B50B46014600202022012409E021FAC5
:1053E00002F59D4205D303FA02F5491B04FA02F5C2
:1053F0002844151EA2F10102F1DC30BD064C074D18
:1054000006E0E06840F0010394E807009847103494
:10541000AC42F6D3FAF76EFE4C5600086C56000804
:105420000FB4054B10B503A9044A029800F02CF8FC
:1054300010BC5DF814FB00002D2100083C0000208A
:105440000FB4084B10B504A902AA039800F01CF889
:10545000044602A9002000F0F3F8204610BC5DF8D5
:1054600014FB00004156000802E008C8121F08C1E2
:10547000002AFAD170477047002001E001C1121FD5
:10548000002AFBD1704700002DE9FF4F8BB09A46F0
:105490000F460546002606E025280BD052460D99FA
:1054A00090476D1C761C28780028F5D10FB0304647
:1054B000BDE8F08F0024A0460122604900E00443CB
:1054C00015F8013F203B02FA03F00842F7D1287893
:1054D0002E2817D115F8010F44F004042A280ED005
:1054E0006FF02F022878A0F1300109290AD808EBC3
:1054F000880102EB410100EB01086D1CF2E757F84F
:10550000048B6D1C287869283ED006DC0028CDD09D
:1055100063280BD0642804D136E0732810D0752896
:105520004BD052460D999047761C85E017F8040B36
:105530008DF8000000208DF80100E946012003E00D
:1055400057F8049B4FF0FF3061074FF0000401D47F
:105550000AE0641C44450DDA8442FADB19F80410B1
:105560000029F6D106E0641C8442FCDB19F8041023
:105570000029F8D1264404E019F8010B52460D9990
:105580009047641EF8D257E001CF4FF00A0B002875
:1055900002DA40422D2102E0210504D52B218DF8AD
:1055A0002410012103E0E10705D02021F7E70DF1E8
:1055B000200908910CE00021F9E701CF4FF00A0B18
:1055C000F9E75946FFF704FF01F1300209F8012D10
:1055D0000028F6D1ADEB090000F1200B600701D4E3
:1055E0004FF00108D84502DDA8EB0B0000E00020D9
:1055F0008046002406E009A85246005D0D999047B8
:10560000641C761C08988442F5DB04E03020524686
:105610000D999047761CB8F10001A8F10108F5DC5E
:1056200005E019F8010B52460D999047761CBBF125
:105630000001ABF1010BF4DC6D1C34E7092801001B
:105640000A68531C0B601070704700006C5600080D
:1056500000000020B800000068540008245700082B
:10566000B8000020184C000078540008000000002A
:1056700001020304010203040607080902040608E4
:10568000000000000000000000000000000000001A
:1056900000A24A0400000000000000000102030410
:1056A00006070809000000000000000000000000DC
:1056B00000000000000000000000000000000000EA
:1056C00000000000000000000000000000000000DA
:1056D00000000000000000000000000000000000CA
:1056E00000000000000000000000000000000000BA
:1056F00000000000000000000000000000000000AA
:105700000000000000000000000000000000000099
:105710000000000000000000AAAAAAAA00000000E1
:045720000000000085
:04000005080000ED02
:00000001FF
